{
  "_format": "hh-sol-artifact-1",
  "contractName": "Creator",
  "sourceName": "contracts/Creator.sol",
  "abi": [
    {
      "inputs": [],
      "stateMutability": "nonpayable",
      "type": "constructor"
    },
    {
      "anonymous": false,
      "inputs": [
        {
          "indexed": true,
          "internalType": "address",
          "name": "owner",
          "type": "address"
        },
        {
          "indexed": true,
          "internalType": "address",
          "name": "approved",
          "type": "address"
        },
        {
          "indexed": true,
          "internalType": "uint256",
          "name": "tokenId",
          "type": "uint256"
        }
      ],
      "name": "Approval",
      "type": "event"
    },
    {
      "anonymous": false,
      "inputs": [
        {
          "indexed": true,
          "internalType": "address",
          "name": "owner",
          "type": "address"
        },
        {
          "indexed": true,
          "internalType": "address",
          "name": "operator",
          "type": "address"
        },
        {
          "indexed": false,
          "internalType": "bool",
          "name": "approved",
          "type": "bool"
        }
      ],
      "name": "ApprovalForAll",
      "type": "event"
    },
    {
      "anonymous": false,
      "inputs": [
        {
          "indexed": true,
          "internalType": "address",
          "name": "previousOwner",
          "type": "address"
        },
        {
          "indexed": true,
          "internalType": "address",
          "name": "newOwner",
          "type": "address"
        }
      ],
      "name": "OwnershipTransferred",
      "type": "event"
    },
    {
      "anonymous": false,
      "inputs": [
        {
          "indexed": true,
          "internalType": "address",
          "name": "from",
          "type": "address"
        },
        {
          "indexed": true,
          "internalType": "address",
          "name": "to",
          "type": "address"
        },
        {
          "indexed": true,
          "internalType": "uint256",
          "name": "tokenId",
          "type": "uint256"
        }
      ],
      "name": "Transfer",
      "type": "event"
    },
    {
      "inputs": [
        {
          "internalType": "address",
          "name": "to",
          "type": "address"
        },
        {
          "internalType": "uint256",
          "name": "tokenId",
          "type": "uint256"
        }
      ],
      "name": "approve",
      "outputs": [],
      "stateMutability": "nonpayable",
      "type": "function"
    },
    {
      "inputs": [
        {
          "internalType": "address",
          "name": "owner",
          "type": "address"
        }
      ],
      "name": "balanceOf",
      "outputs": [
        {
          "internalType": "uint256",
          "name": "",
          "type": "uint256"
        }
      ],
      "stateMutability": "view",
      "type": "function"
    },
    {
      "inputs": [
        {
          "internalType": "address",
          "name": "_to",
          "type": "address"
        },
        {
          "internalType": "string",
          "name": "_tokenURI",
          "type": "string"
        }
      ],
      "name": "createNFT",
      "outputs": [
        {
          "internalType": "uint256",
          "name": "",
          "type": "uint256"
        }
      ],
      "stateMutability": "nonpayable",
      "type": "function"
    },
    {
      "inputs": [
        {
          "internalType": "uint256",
          "name": "tokenId",
          "type": "uint256"
        }
      ],
      "name": "getApproved",
      "outputs": [
        {
          "internalType": "address",
          "name": "",
          "type": "address"
        }
      ],
      "stateMutability": "view",
      "type": "function"
    },
    {
      "inputs": [
        {
          "internalType": "address",
          "name": "owner",
          "type": "address"
        },
        {
          "internalType": "address",
          "name": "operator",
          "type": "address"
        }
      ],
      "name": "isApprovedForAll",
      "outputs": [
        {
          "internalType": "bool",
          "name": "",
          "type": "bool"
        }
      ],
      "stateMutability": "view",
      "type": "function"
    },
    {
      "inputs": [],
      "name": "marketplaceContractAddress",
      "outputs": [
        {
          "internalType": "address",
          "name": "",
          "type": "address"
        }
      ],
      "stateMutability": "view",
      "type": "function"
    },
    {
      "inputs": [],
      "name": "name",
      "outputs": [
        {
          "internalType": "string",
          "name": "",
          "type": "string"
        }
      ],
      "stateMutability": "view",
      "type": "function"
    },
    {
      "inputs": [],
      "name": "owner",
      "outputs": [
        {
          "internalType": "address",
          "name": "",
          "type": "address"
        }
      ],
      "stateMutability": "view",
      "type": "function"
    },
    {
      "inputs": [
        {
          "internalType": "uint256",
          "name": "tokenId",
          "type": "uint256"
        }
      ],
      "name": "ownerOf",
      "outputs": [
        {
          "internalType": "address",
          "name": "",
          "type": "address"
        }
      ],
      "stateMutability": "view",
      "type": "function"
    },
    {
      "inputs": [],
      "name": "renounceOwnership",
      "outputs": [],
      "stateMutability": "nonpayable",
      "type": "function"
    },
    {
      "inputs": [
        {
          "internalType": "address",
          "name": "from",
          "type": "address"
        },
        {
          "internalType": "address",
          "name": "to",
          "type": "address"
        },
        {
          "internalType": "uint256",
          "name": "tokenId",
          "type": "uint256"
        }
      ],
      "name": "safeTransferFrom",
      "outputs": [],
      "stateMutability": "nonpayable",
      "type": "function"
    },
    {
      "inputs": [
        {
          "internalType": "address",
          "name": "from",
          "type": "address"
        },
        {
          "internalType": "address",
          "name": "to",
          "type": "address"
        },
        {
          "internalType": "uint256",
          "name": "tokenId",
          "type": "uint256"
        },
        {
          "internalType": "bytes",
          "name": "data",
          "type": "bytes"
        }
      ],
      "name": "safeTransferFrom",
      "outputs": [],
      "stateMutability": "nonpayable",
      "type": "function"
    },
    {
      "inputs": [
        {
          "internalType": "address",
          "name": "operator",
          "type": "address"
        },
        {
          "internalType": "bool",
          "name": "approved",
          "type": "bool"
        }
      ],
      "name": "setApprovalForAll",
      "outputs": [],
      "stateMutability": "nonpayable",
      "type": "function"
    },
    {
      "inputs": [
        {
          "internalType": "address",
          "name": "_address",
          "type": "address"
        }
      ],
      "name": "setMarketplace",
      "outputs": [],
      "stateMutability": "nonpayable",
      "type": "function"
    },
    {
      "inputs": [
        {
          "internalType": "bytes4",
          "name": "interfaceId",
          "type": "bytes4"
        }
      ],
      "name": "supportsInterface",
      "outputs": [
        {
          "internalType": "bool",
          "name": "",
          "type": "bool"
        }
      ],
      "stateMutability": "view",
      "type": "function"
    },
    {
      "inputs": [],
      "name": "symbol",
      "outputs": [
        {
          "internalType": "string",
          "name": "",
          "type": "string"
        }
      ],
      "stateMutability": "view",
      "type": "function"
    },
    {
      "inputs": [
        {
          "internalType": "uint256",
          "name": "index",
          "type": "uint256"
        }
      ],
      "name": "tokenByIndex",
      "outputs": [
        {
          "internalType": "uint256",
          "name": "",
          "type": "uint256"
        }
      ],
      "stateMutability": "view",
      "type": "function"
    },
    {
      "inputs": [
        {
          "internalType": "address",
          "name": "owner",
          "type": "address"
        },
        {
          "internalType": "uint256",
          "name": "index",
          "type": "uint256"
        }
      ],
      "name": "tokenOfOwnerByIndex",
      "outputs": [
        {
          "internalType": "uint256",
          "name": "",
          "type": "uint256"
        }
      ],
      "stateMutability": "view",
      "type": "function"
    },
    {
      "inputs": [
        {
          "internalType": "uint256",
          "name": "tokenId",
          "type": "uint256"
        }
      ],
      "name": "tokenURI",
      "outputs": [
        {
          "internalType": "string",
          "name": "",
          "type": "string"
        }
      ],
      "stateMutability": "view",
      "type": "function"
    },
    {
      "inputs": [],
      "name": "totalSupply",
      "outputs": [
        {
          "internalType": "uint256",
          "name": "",
          "type": "uint256"
        }
      ],
      "stateMutability": "view",
      "type": "function"
    },
    {
      "inputs": [
        {
          "internalType": "address",
          "name": "from",
          "type": "address"
        },
        {
          "internalType": "address",
          "name": "to",
          "type": "address"
        },
        {
          "internalType": "uint256",
          "name": "tokenId",
          "type": "uint256"
        }
      ],
      "name": "transferFrom",
      "outputs": [],
      "stateMutability": "nonpayable",
      "type": "function"
    },
    {
      "inputs": [
        {
          "internalType": "address",
          "name": "newOwner",
          "type": "address"
        }
      ],
      "name": "transferOwnership",
      "outputs": [],
      "stateMutability": "nonpayable",
      "type": "function"
    }
  ],
  "bytecode": "0x60806040523480156200001157600080fd5b506040518060400160405280601781526020017f4d61726b6574706c6163652043726561746f72204e46540000000000000000008152506040518060400160405280600381526020017f4d434e0000000000000000000000000000000000000000000000000000000000815250816000908051906020019062000096929190620001a6565b508060019080519060200190620000af929190620001a6565b505050620000d2620000c6620000d860201b60201c565b620000e060201b60201c565b620002bb565b600033905090565b6000600b60009054906101000a900473ffffffffffffffffffffffffffffffffffffffff16905081600b60006101000a81548173ffffffffffffffffffffffffffffffffffffffff021916908373ffffffffffffffffffffffffffffffffffffffff1602179055508173ffffffffffffffffffffffffffffffffffffffff168173ffffffffffffffffffffffffffffffffffffffff167f8be0079c531659141344cd1fd0a4f28419497f9722a3daafe3b4186f6b6457e060405160405180910390a35050565b828054620001b49062000285565b90600052602060002090601f016020900481019282620001d8576000855562000224565b82601f10620001f357805160ff191683800117855562000224565b8280016001018555821562000224579182015b828111156200022357825182559160200191906001019062000206565b5b50905062000233919062000237565b5090565b5b808211156200025257600081600090555060010162000238565b5090565b7f4e487b7100000000000000000000000000000000000000000000000000000000600052602260045260246000fd5b600060028204905060018216806200029e57607f821691505b60208210811415620002b557620002b462000256565b5b50919050565b61350a80620002cb6000396000f3fe608060405234801561001057600080fd5b50600436106101425760003560e01c806370a08231116100b8578063a22cb4651161007c578063a22cb46514610377578063a561403314610393578063b88d4fde146103c3578063c87b56dd146103df578063e985e9c51461040f578063f2fde38b1461043f57610142565b806370a08231146102e5578063715018a61461031557806373ad6c2d1461031f5780638da5cb5b1461033b57806395d89b411461035957610142565b806323b872dd1161010a57806323b872dd146101ff5780632f745c591461021b578063391e2ee21461024b57806342842e0e146102695780634f6ccce7146102855780636352211e146102b557610142565b806301ffc9a71461014757806306fdde0314610177578063081812fc14610195578063095ea7b3146101c557806318160ddd146101e1575b600080fd5b610161600480360381019061015c9190612289565b61045b565b60405161016e91906122d1565b60405180910390f35b61017f61046d565b60405161018c9190612385565b60405180910390f35b6101af60048036038101906101aa91906123dd565b6104ff565b6040516101bc919061244b565b60405180910390f35b6101df60048036038101906101da9190612492565b610545565b005b6101e961065d565b6040516101f691906124e1565b60405180910390f35b610219600480360381019061021491906124fc565b61066a565b005b61023560048036038101906102309190612492565b6106ca565b60405161024291906124e1565b60405180910390f35b61025361076f565b604051610260919061244b565b60405180910390f35b610283600480360381019061027e91906124fc565b610795565b005b61029f600480360381019061029a91906123dd565b6107b5565b6040516102ac91906124e1565b60405180910390f35b6102cf60048036038101906102ca91906123dd565b610826565b6040516102dc919061244b565b60405180910390f35b6102ff60048036038101906102fa919061254f565b6108d8565b60405161030c91906124e1565b60405180910390f35b61031d610990565b005b6103396004803603810190610334919061254f565b6109a4565b005b6103436109f0565b604051610350919061244b565b60405180910390f35b610361610a1a565b60405161036e9190612385565b60405180910390f35b610391600480360381019061038c91906125a8565b610aac565b005b6103ad60048036038101906103a8919061271d565b610ac2565b6040516103ba91906124e1565b60405180910390f35b6103dd60048036038101906103d8919061281a565b610b54565b005b6103f960048036038101906103f491906123dd565b610bb6565b6040516104069190612385565b60405180910390f35b6104296004803603810190610424919061289d565b610bc8565b60405161043691906122d1565b60405180910390f35b6104596004803603810190610454919061254f565b610c5c565b005b600061046682610ce0565b9050919050565b60606000805461047c9061290c565b80601f01602080910402602001604051908101604052809291908181526020018280546104a89061290c565b80156104f55780601f106104ca576101008083540402835291602001916104f5565b820191906000526020600020905b8154815290600101906020018083116104d857829003601f168201915b5050505050905090565b600061050a82610d5a565b6004600083815260200190815260200160002060009054906101000a900473ffffffffffffffffffffffffffffffffffffffff169050919050565b600061055082610826565b90508073ffffffffffffffffffffffffffffffffffffffff168373ffffffffffffffffffffffffffffffffffffffff1614156105c1576040517f08c379a00000000000000000000000000000000000000000000000000000000081526004016105b8906129b0565b60405180910390fd5b8073ffffffffffffffffffffffffffffffffffffffff166105e0610da5565b73ffffffffffffffffffffffffffffffffffffffff16148061060f575061060e81610609610da5565b610bc8565b5b61064e576040517f08c379a000000000000000000000000000000000000000000000000000000000815260040161064590612a42565b60405180910390fd5b6106588383610dad565b505050565b6000600980549050905090565b61067b610675610da5565b82610e66565b6106ba576040517f08c379a00000000000000000000000000000000000000000000000000000000081526004016106b190612ad4565b60405180910390fd5b6106c5838383610efb565b505050565b60006106d5836108d8565b8210610716576040517f08c379a000000000000000000000000000000000000000000000000000000000815260040161070d90612b66565b60405180910390fd5b600760008473ffffffffffffffffffffffffffffffffffffffff1673ffffffffffffffffffffffffffffffffffffffff168152602001908152602001600020600083815260200190815260200160002054905092915050565b600d60009054906101000a900473ffffffffffffffffffffffffffffffffffffffff1681565b6107b083838360405180602001604052806000815250610b54565b505050565b60006107bf61065d565b8210610800576040517f08c379a00000000000000000000000000000000000000000000000000000000081526004016107f790612bf8565b60405180910390fd5b6009828154811061081457610813612c18565b5b90600052602060002001549050919050565b6000806002600084815260200190815260200160002060009054906101000a900473ffffffffffffffffffffffffffffffffffffffff169050600073ffffffffffffffffffffffffffffffffffffffff168173ffffffffffffffffffffffffffffffffffffffff1614156108cf576040517f08c379a00000000000000000000000000000000000000000000000000000000081526004016108c690612c93565b60405180910390fd5b80915050919050565b60008073ffffffffffffffffffffffffffffffffffffffff168273ffffffffffffffffffffffffffffffffffffffff161415610949576040517f08c379a000000000000000000000000000000000000000000000000000000000815260040161094090612d25565b60405180910390fd5b600360008373ffffffffffffffffffffffffffffffffffffffff1673ffffffffffffffffffffffffffffffffffffffff168152602001908152602001600020549050919050565b610998611162565b6109a260006111e0565b565b6109ac611162565b80600d60006101000a81548173ffffffffffffffffffffffffffffffffffffffff021916908373ffffffffffffffffffffffffffffffffffffffff16021790555050565b6000600b60009054906101000a900473ffffffffffffffffffffffffffffffffffffffff16905090565b606060018054610a299061290c565b80601f0160208091040260200160405190810160405280929190818152602001828054610a559061290c565b8015610aa25780601f10610a7757610100808354040283529160200191610aa2565b820191906000526020600020905b815481529060010190602001808311610a8557829003601f168201915b5050505050905090565b610abe610ab7610da5565b83836112a6565b5050565b6000600d60009054906101000a900473ffffffffffffffffffffffffffffffffffffffff1673ffffffffffffffffffffffffffffffffffffffff163373ffffffffffffffffffffffffffffffffffffffff1614610b1e57600080fd5b610b28600c611413565b6000610b34600c611429565b9050610b408482611437565b610b4a8184611611565b8091505092915050565b610b65610b5f610da5565b83610e66565b610ba4576040517f08c379a0000000000000000000000000000000000000000000000000000000008152600401610b9b90612ad4565b60405180910390fd5b610bb084848484611685565b50505050565b6060610bc1826116e1565b9050919050565b6000600560008473ffffffffffffffffffffffffffffffffffffffff1673ffffffffffffffffffffffffffffffffffffffff16815260200190815260200160002060008373ffffffffffffffffffffffffffffffffffffffff1673ffffffffffffffffffffffffffffffffffffffff16815260200190815260200160002060009054906101000a900460ff16905092915050565b610c64611162565b600073ffffffffffffffffffffffffffffffffffffffff168173ffffffffffffffffffffffffffffffffffffffff161415610cd4576040517f08c379a0000000000000000000000000000000000000000000000000000000008152600401610ccb90612db7565b60405180910390fd5b610cdd816111e0565b50565b60007f780e9d63000000000000000000000000000000000000000000000000000000007bffffffffffffffffffffffffffffffffffffffffffffffffffffffff1916827bffffffffffffffffffffffffffffffffffffffffffffffffffffffff19161480610d535750610d52826117f4565b5b9050919050565b610d63816118d6565b610da2576040517f08c379a0000000000000000000000000000000000000000000000000000000008152600401610d9990612c93565b60405180910390fd5b50565b600033905090565b816004600083815260200190815260200160002060006101000a81548173ffffffffffffffffffffffffffffffffffffffff021916908373ffffffffffffffffffffffffffffffffffffffff160217905550808273ffffffffffffffffffffffffffffffffffffffff16610e2083610826565b73ffffffffffffffffffffffffffffffffffffffff167f8c5be1e5ebec7d5bd14f71427d1e84f3dd0314c0f7b2291e5b200ac8c7c3b92560405160405180910390a45050565b600080610e7283610826565b90508073ffffffffffffffffffffffffffffffffffffffff168473ffffffffffffffffffffffffffffffffffffffff161480610eb45750610eb38185610bc8565b5b80610ef257508373ffffffffffffffffffffffffffffffffffffffff16610eda846104ff565b73ffffffffffffffffffffffffffffffffffffffff16145b91505092915050565b8273ffffffffffffffffffffffffffffffffffffffff16610f1b82610826565b73ffffffffffffffffffffffffffffffffffffffff1614610f71576040517f08c379a0000000000000000000000000000000000000000000000000000000008152600401610f6890612e49565b60405180910390fd5b600073ffffffffffffffffffffffffffffffffffffffff168273ffffffffffffffffffffffffffffffffffffffff161415610fe1576040517f08c379a0000000000000000000000000000000000000000000000000000000008152600401610fd890612edb565b60405180910390fd5b610fec838383611942565b610ff7600082610dad565b6001600360008573ffffffffffffffffffffffffffffffffffffffff1673ffffffffffffffffffffffffffffffffffffffff16815260200190815260200160002060008282546110479190612f2a565b925050819055506001600360008473ffffffffffffffffffffffffffffffffffffffff1673ffffffffffffffffffffffffffffffffffffffff168152602001908152602001600020600082825461109e9190612f5e565b92505081905550816002600083815260200190815260200160002060006101000a81548173ffffffffffffffffffffffffffffffffffffffff021916908373ffffffffffffffffffffffffffffffffffffffff160217905550808273ffffffffffffffffffffffffffffffffffffffff168473ffffffffffffffffffffffffffffffffffffffff167fddf252ad1be2c89b69c2b068fc378daa952ba7f163c4a11628f55a4df523b3ef60405160405180910390a461115d838383611952565b505050565b61116a610da5565b73ffffffffffffffffffffffffffffffffffffffff166111886109f0565b73ffffffffffffffffffffffffffffffffffffffff16146111de576040517f08c379a00000000000000000000000000000000000000000000000000000000081526004016111d590613000565b60405180910390fd5b565b6000600b60009054906101000a900473ffffffffffffffffffffffffffffffffffffffff16905081600b60006101000a81548173ffffffffffffffffffffffffffffffffffffffff021916908373ffffffffffffffffffffffffffffffffffffffff1602179055508173ffffffffffffffffffffffffffffffffffffffff168173ffffffffffffffffffffffffffffffffffffffff167f8be0079c531659141344cd1fd0a4f28419497f9722a3daafe3b4186f6b6457e060405160405180910390a35050565b8173ffffffffffffffffffffffffffffffffffffffff168373ffffffffffffffffffffffffffffffffffffffff161415611315576040517f08c379a000000000000000000000000000000000000000000000000000000000815260040161130c9061306c565b60405180910390fd5b80600560008573ffffffffffffffffffffffffffffffffffffffff1673ffffffffffffffffffffffffffffffffffffffff16815260200190815260200160002060008473ffffffffffffffffffffffffffffffffffffffff1673ffffffffffffffffffffffffffffffffffffffff16815260200190815260200160002060006101000a81548160ff0219169083151502179055508173ffffffffffffffffffffffffffffffffffffffff168373ffffffffffffffffffffffffffffffffffffffff167f17307eab39ab6107e8899845ad3d59bd9653f200f220920489ca2b5937696c318360405161140691906122d1565b60405180910390a3505050565b6001816000016000828254019250508190555050565b600081600001549050919050565b600073ffffffffffffffffffffffffffffffffffffffff168273ffffffffffffffffffffffffffffffffffffffff1614156114a7576040517f08c379a000000000000000000000000000000000000000000000000000000000815260040161149e906130d8565b60405180910390fd5b6114b0816118d6565b156114f0576040517f08c379a00000000000000000000000000000000000000000000000000000000081526004016114e790613144565b60405180910390fd5b6114fc60008383611942565b6001600360008473ffffffffffffffffffffffffffffffffffffffff1673ffffffffffffffffffffffffffffffffffffffff168152602001908152602001600020600082825461154c9190612f5e565b92505081905550816002600083815260200190815260200160002060006101000a81548173ffffffffffffffffffffffffffffffffffffffff021916908373ffffffffffffffffffffffffffffffffffffffff160217905550808273ffffffffffffffffffffffffffffffffffffffff16600073ffffffffffffffffffffffffffffffffffffffff167fddf252ad1be2c89b69c2b068fc378daa952ba7f163c4a11628f55a4df523b3ef60405160405180910390a461160d60008383611952565b5050565b61161a826118d6565b611659576040517f08c379a0000000000000000000000000000000000000000000000000000000008152600401611650906131d6565b60405180910390fd5b8060066000848152602001908152602001600020908051906020019061168092919061217a565b505050565b611690848484610efb565b61169c84848484611957565b6116db576040517f08c379a00000000000000000000000000000000000000000000000000000000081526004016116d290613268565b60405180910390fd5b50505050565b60606116ec82610d5a565b600060066000848152602001908152602001600020805461170c9061290c565b80601f01602080910402602001604051908101604052809291908181526020018280546117389061290c565b80156117855780601f1061175a57610100808354040283529160200191611785565b820191906000526020600020905b81548152906001019060200180831161176857829003601f168201915b505050505090506000611796611aee565b90506000815114156117ac5781925050506117ef565b6000825111156117e15780826040516020016117c99291906132c4565b604051602081830303815290604052925050506117ef565b6117ea84611b05565b925050505b919050565b60007f80ac58cd000000000000000000000000000000000000000000000000000000007bffffffffffffffffffffffffffffffffffffffffffffffffffffffff1916827bffffffffffffffffffffffffffffffffffffffffffffffffffffffff191614806118bf57507f5b5e139f000000000000000000000000000000000000000000000000000000007bffffffffffffffffffffffffffffffffffffffffffffffffffffffff1916827bffffffffffffffffffffffffffffffffffffffffffffffffffffffff1916145b806118cf57506118ce82611b6d565b5b9050919050565b60008073ffffffffffffffffffffffffffffffffffffffff166002600084815260200190815260200160002060009054906101000a900473ffffffffffffffffffffffffffffffffffffffff1673ffffffffffffffffffffffffffffffffffffffff1614159050919050565b61194d838383611bd7565b505050565b505050565b60006119788473ffffffffffffffffffffffffffffffffffffffff16611ceb565b15611ae1578373ffffffffffffffffffffffffffffffffffffffff1663150b7a026119a1610da5565b8786866040518563ffffffff1660e01b81526004016119c3949392919061333d565b602060405180830381600087803b1580156119dd57600080fd5b505af1925050508015611a0e57506040513d601f19601f82011682018060405250810190611a0b919061339e565b60015b611a91573d8060008114611a3e576040519150601f19603f3d011682016040523d82523d6000602084013e611a43565b606091505b50600081511415611a89576040517f08c379a0000000000000000000000000000000000000000000000000000000008152600401611a8090613268565b60405180910390fd5b805181602001fd5b63150b7a0260e01b7bffffffffffffffffffffffffffffffffffffffffffffffffffffffff1916817bffffffffffffffffffffffffffffffffffffffffffffffffffffffff191614915050611ae6565b600190505b949350505050565b606060405180602001604052806000815250905090565b6060611b1082610d5a565b6000611b1a611aee565b90506000815111611b3a5760405180602001604052806000815250611b65565b80611b4484611d0e565b604051602001611b559291906132c4565b6040516020818303038152906040525b915050919050565b60007f01ffc9a7000000000000000000000000000000000000000000000000000000007bffffffffffffffffffffffffffffffffffffffffffffffffffffffff1916827bffffffffffffffffffffffffffffffffffffffffffffffffffffffff1916149050919050565b611be2838383611e6f565b600073ffffffffffffffffffffffffffffffffffffffff168373ffffffffffffffffffffffffffffffffffffffff161415611c2557611c2081611e74565b611c64565b8173ffffffffffffffffffffffffffffffffffffffff168373ffffffffffffffffffffffffffffffffffffffff1614611c6357611c628382611ebd565b5b5b600073ffffffffffffffffffffffffffffffffffffffff168273ffffffffffffffffffffffffffffffffffffffff161415611ca757611ca28161202a565b611ce6565b8273ffffffffffffffffffffffffffffffffffffffff168273ffffffffffffffffffffffffffffffffffffffff1614611ce557611ce482826120fb565b5b5b505050565b6000808273ffffffffffffffffffffffffffffffffffffffff163b119050919050565b60606000821415611d56576040518060400160405280600181526020017f30000000000000000000000000000000000000000000000000000000000000008152509050611e6a565b600082905060005b60008214611d88578080611d71906133cb565b915050600a82611d819190613443565b9150611d5e565b60008167ffffffffffffffff811115611da457611da36125f2565b5b6040519080825280601f01601f191660200182016040528015611dd65781602001600182028036833780820191505090505b5090505b60008514611e6357600182611def9190612f2a565b9150600a85611dfe9190613474565b6030611e0a9190612f5e565b60f81b818381518110611e2057611e1f612c18565b5b60200101907effffffffffffffffffffffffffffffffffffffffffffffffffffffffffffff1916908160001a905350600a85611e5c9190613443565b9450611dda565b8093505050505b919050565b505050565b600980549050600a600083815260200190815260200160002081905550600981908060018154018082558091505060019003906000526020600020016000909190919091505550565b60006001611eca846108d8565b611ed49190612f2a565b9050600060086000848152602001908152602001600020549050818114611fb9576000600760008673ffffffffffffffffffffffffffffffffffffffff1673ffffffffffffffffffffffffffffffffffffffff168152602001908152602001600020600084815260200190815260200160002054905080600760008773ffffffffffffffffffffffffffffffffffffffff1673ffffffffffffffffffffffffffffffffffffffff168152602001908152602001600020600084815260200190815260200160002081905550816008600083815260200190815260200160002081905550505b6008600084815260200190815260200160002060009055600760008573ffffffffffffffffffffffffffffffffffffffff1673ffffffffffffffffffffffffffffffffffffffff16815260200190815260200160002060008381526020019081526020016000206000905550505050565b6000600160098054905061203e9190612f2a565b90506000600a600084815260200190815260200160002054905060006009838154811061206e5761206d612c18565b5b9060005260206000200154905080600983815481106120905761208f612c18565b5b906000526020600020018190555081600a600083815260200190815260200160002081905550600a60008581526020019081526020016000206000905560098054806120df576120de6134a5565b5b6001900381819060005260206000200160009055905550505050565b6000612106836108d8565b905081600760008573ffffffffffffffffffffffffffffffffffffffff1673ffffffffffffffffffffffffffffffffffffffff168152602001908152602001600020600083815260200190815260200160002081905550806008600084815260200190815260200160002081905550505050565b8280546121869061290c565b90600052602060002090601f0160209004810192826121a857600085556121ef565b82601f106121c157805160ff19168380011785556121ef565b828001600101855582156121ef579182015b828111156121ee5782518255916020019190600101906121d3565b5b5090506121fc9190612200565b5090565b5b80821115612219576000816000905550600101612201565b5090565b6000604051905090565b600080fd5b600080fd5b60007fffffffff0000000000000000000000000000000000000000000000000000000082169050919050565b61226681612231565b811461227157600080fd5b50565b6000813590506122838161225d565b92915050565b60006020828403121561229f5761229e612227565b5b60006122ad84828501612274565b91505092915050565b60008115159050919050565b6122cb816122b6565b82525050565b60006020820190506122e660008301846122c2565b92915050565b600081519050919050565b600082825260208201905092915050565b60005b8381101561232657808201518184015260208101905061230b565b83811115612335576000848401525b50505050565b6000601f19601f8301169050919050565b6000612357826122ec565b61236181856122f7565b9350612371818560208601612308565b61237a8161233b565b840191505092915050565b6000602082019050818103600083015261239f818461234c565b905092915050565b6000819050919050565b6123ba816123a7565b81146123c557600080fd5b50565b6000813590506123d7816123b1565b92915050565b6000602082840312156123f3576123f2612227565b5b6000612401848285016123c8565b91505092915050565b600073ffffffffffffffffffffffffffffffffffffffff82169050919050565b60006124358261240a565b9050919050565b6124458161242a565b82525050565b6000602082019050612460600083018461243c565b92915050565b61246f8161242a565b811461247a57600080fd5b50565b60008135905061248c81612466565b92915050565b600080604083850312156124a9576124a8612227565b5b60006124b78582860161247d565b92505060206124c8858286016123c8565b9150509250929050565b6124db816123a7565b82525050565b60006020820190506124f660008301846124d2565b92915050565b60008060006060848603121561251557612514612227565b5b60006125238682870161247d565b93505060206125348682870161247d565b9250506040612545868287016123c8565b9150509250925092565b60006020828403121561256557612564612227565b5b60006125738482850161247d565b91505092915050565b612585816122b6565b811461259057600080fd5b50565b6000813590506125a28161257c565b92915050565b600080604083850312156125bf576125be612227565b5b60006125cd8582860161247d565b92505060206125de85828601612593565b9150509250929050565b600080fd5b600080fd5b7f4e487b7100000000000000000000000000000000000000000000000000000000600052604160045260246000fd5b61262a8261233b565b810181811067ffffffffffffffff82111715612649576126486125f2565b5b80604052505050565b600061265c61221d565b90506126688282612621565b919050565b600067ffffffffffffffff821115612688576126876125f2565b5b6126918261233b565b9050602081019050919050565b82818337600083830152505050565b60006126c06126bb8461266d565b612652565b9050828152602081018484840111156126dc576126db6125ed565b5b6126e784828561269e565b509392505050565b600082601f830112612704576127036125e8565b5b81356127148482602086016126ad565b91505092915050565b6000806040838503121561273457612733612227565b5b60006127428582860161247d565b925050602083013567ffffffffffffffff8111156127635761276261222c565b5b61276f858286016126ef565b9150509250929050565b600067ffffffffffffffff821115612794576127936125f2565b5b61279d8261233b565b9050602081019050919050565b60006127bd6127b884612779565b612652565b9050828152602081018484840111156127d9576127d86125ed565b5b6127e484828561269e565b509392505050565b600082601f830112612801576128006125e8565b5b81356128118482602086016127aa565b91505092915050565b6000806000806080858703121561283457612833612227565b5b60006128428782880161247d565b94505060206128538782880161247d565b9350506040612864878288016123c8565b925050606085013567ffffffffffffffff8111156128855761288461222c565b5b612891878288016127ec565b91505092959194509250565b600080604083850312156128b4576128b3612227565b5b60006128c28582860161247d565b92505060206128d38582860161247d565b9150509250929050565b7f4e487b7100000000000000000000000000000000000000000000000000000000600052602260045260246000fd5b6000600282049050600182168061292457607f821691505b60208210811415612938576129376128dd565b5b50919050565b7f4552433732313a20617070726f76616c20746f2063757272656e74206f776e6560008201527f7200000000000000000000000000000000000000000000000000000000000000602082015250565b600061299a6021836122f7565b91506129a58261293e565b604082019050919050565b600060208201905081810360008301526129c98161298d565b9050919050565b7f4552433732313a20617070726f76652063616c6c6572206973206e6f7420746f60008201527f6b656e206f776e6572206e6f7220617070726f76656420666f7220616c6c0000602082015250565b6000612a2c603e836122f7565b9150612a37826129d0565b604082019050919050565b60006020820190508181036000830152612a5b81612a1f565b9050919050565b7f4552433732313a2063616c6c6572206973206e6f7420746f6b656e206f776e6560008201527f72206e6f7220617070726f766564000000000000000000000000000000000000602082015250565b6000612abe602e836122f7565b9150612ac982612a62565b604082019050919050565b60006020820190508181036000830152612aed81612ab1565b9050919050565b7f455243373231456e756d657261626c653a206f776e657220696e646578206f7560008201527f74206f6620626f756e6473000000000000000000000000000000000000000000602082015250565b6000612b50602b836122f7565b9150612b5b82612af4565b604082019050919050565b60006020820190508181036000830152612b7f81612b43565b9050919050565b7f455243373231456e756d657261626c653a20676c6f62616c20696e646578206f60008201527f7574206f6620626f756e64730000000000000000000000000000000000000000602082015250565b6000612be2602c836122f7565b9150612bed82612b86565b604082019050919050565b60006020820190508181036000830152612c1181612bd5565b9050919050565b7f4e487b7100000000000000000000000000000000000000000000000000000000600052603260045260246000fd5b7f4552433732313a20696e76616c696420746f6b656e2049440000000000000000600082015250565b6000612c7d6018836122f7565b9150612c8882612c47565b602082019050919050565b60006020820190508181036000830152612cac81612c70565b9050919050565b7f4552433732313a2061646472657373207a65726f206973206e6f74206120766160008201527f6c6964206f776e65720000000000000000000000000000000000000000000000602082015250565b6000612d0f6029836122f7565b9150612d1a82612cb3565b604082019050919050565b60006020820190508181036000830152612d3e81612d02565b9050919050565b7f4f776e61626c653a206e6577206f776e657220697320746865207a65726f206160008201527f6464726573730000000000000000000000000000000000000000000000000000602082015250565b6000612da16026836122f7565b9150612dac82612d45565b604082019050919050565b60006020820190508181036000830152612dd081612d94565b9050919050565b7f4552433732313a207472616e736665722066726f6d20696e636f72726563742060008201527f6f776e6572000000000000000000000000000000000000000000000000000000602082015250565b6000612e336025836122f7565b9150612e3e82612dd7565b604082019050919050565b60006020820190508181036000830152612e6281612e26565b9050919050565b7f4552433732313a207472616e7366657220746f20746865207a65726f2061646460008201527f7265737300000000000000000000000000000000000000000000000000000000602082015250565b6000612ec56024836122f7565b9150612ed082612e69565b604082019050919050565b60006020820190508181036000830152612ef481612eb8565b9050919050565b7f4e487b7100000000000000000000000000000000000000000000000000000000600052601160045260246000fd5b6000612f35826123a7565b9150612f40836123a7565b925082821015612f5357612f52612efb565b5b828203905092915050565b6000612f69826123a7565b9150612f74836123a7565b9250827fffffffffffffffffffffffffffffffffffffffffffffffffffffffffffffffff03821115612fa957612fa8612efb565b5b828201905092915050565b7f4f776e61626c653a2063616c6c6572206973206e6f7420746865206f776e6572600082015250565b6000612fea6020836122f7565b9150612ff582612fb4565b602082019050919050565b6000602082019050818103600083015261301981612fdd565b9050919050565b7f4552433732313a20617070726f766520746f2063616c6c657200000000000000600082015250565b60006130566019836122f7565b915061306182613020565b602082019050919050565b6000602082019050818103600083015261308581613049565b9050919050565b7f4552433732313a206d696e7420746f20746865207a65726f2061646472657373600082015250565b60006130c26020836122f7565b91506130cd8261308c565b602082019050919050565b600060208201905081810360008301526130f1816130b5565b9050919050565b7f4552433732313a20746f6b656e20616c7265616479206d696e74656400000000600082015250565b600061312e601c836122f7565b9150613139826130f8565b602082019050919050565b6000602082019050818103600083015261315d81613121565b9050919050565b7f45524337323155524953746f726167653a2055524920736574206f66206e6f6e60008201527f6578697374656e7420746f6b656e000000000000000000000000000000000000602082015250565b60006131c0602e836122f7565b91506131cb82613164565b604082019050919050565b600060208201905081810360008301526131ef816131b3565b9050919050565b7f4552433732313a207472616e7366657220746f206e6f6e20455243373231526560008201527f63656976657220696d706c656d656e7465720000000000000000000000000000602082015250565b60006132526032836122f7565b915061325d826131f6565b604082019050919050565b6000602082019050818103600083015261328181613245565b9050919050565b600081905092915050565b600061329e826122ec565b6132a88185613288565b93506132b8818560208601612308565b80840191505092915050565b60006132d08285613293565b91506132dc8284613293565b91508190509392505050565b600081519050919050565b600082825260208201905092915050565b600061330f826132e8565b61331981856132f3565b9350613329818560208601612308565b6133328161233b565b840191505092915050565b6000608082019050613352600083018761243c565b61335f602083018661243c565b61336c60408301856124d2565b818103606083015261337e8184613304565b905095945050505050565b6000815190506133988161225d565b92915050565b6000602082840312156133b4576133b3612227565b5b60006133c284828501613389565b91505092915050565b60006133d6826123a7565b91507fffffffffffffffffffffffffffffffffffffffffffffffffffffffffffffffff82141561340957613408612efb565b5b600182019050919050565b7f4e487b7100000000000000000000000000000000000000000000000000000000600052601260045260246000fd5b600061344e826123a7565b9150613459836123a7565b92508261346957613468613414565b5b828204905092915050565b600061347f826123a7565b915061348a836123a7565b92508261349a57613499613414565b5b828206905092915050565b7f4e487b7100000000000000000000000000000000000000000000000000000000600052603160045260246000fdfea264697066735822122053ec60a418d74558f32c4fa7920b4a01c2b1842769acc77e9b152843a5ccdee164736f6c63430008090033",
  "linkReferences": {},
  "deployedLinkReferences": {}
}