{
  "_format": "hh-sol-artifact-1",
  "contractName": "Marketplace",
  "sourceName": "contracts/Marketplace.sol",
  "abi": [
    {
      "inputs": [],
      "stateMutability": "nonpayable",
      "type": "constructor"
    },
    {
      "anonymous": false,
      "inputs": [
        {
          "indexed": false,
          "internalType": "address",
          "name": "seller",
          "type": "address"
        },
        {
          "indexed": false,
          "internalType": "address",
          "name": "buyer",
          "type": "address"
        },
        {
          "indexed": false,
          "internalType": "address",
          "name": "contractAddress",
          "type": "address"
        },
        {
          "indexed": true,
          "internalType": "uint256",
          "name": "tokenId",
          "type": "uint256"
        },
        {
          "indexed": true,
          "internalType": "uint256",
          "name": "price",
          "type": "uint256"
        }
      ],
      "name": "Sale",
      "type": "event"
    },
    {
      "inputs": [],
      "name": "ERC721InterfaceId",
      "outputs": [
        {
          "internalType": "bytes4",
          "name": "",
          "type": "bytes4"
        }
      ],
      "stateMutability": "view",
      "type": "function"
    },
    {
      "inputs": [
        {
          "internalType": "string",
          "name": "_tokenURI",
          "type": "string"
        },
        {
          "internalType": "uint256",
          "name": "_royalty",
          "type": "uint256"
        }
      ],
      "name": "createNFT",
      "outputs": [
        {
          "internalType": "uint256",
          "name": "",
          "type": "uint256"
        }
      ],
      "stateMutability": "payable",
      "type": "function"
    },
    {
      "inputs": [
        {
          "internalType": "address",
          "name": "",
          "type": "address"
        },
        {
          "internalType": "uint256",
          "name": "",
          "type": "uint256"
        }
      ],
      "name": "creatorAddress",
      "outputs": [
        {
          "internalType": "address",
          "name": "",
          "type": "address"
        }
      ],
      "stateMutability": "view",
      "type": "function"
    },
    {
      "inputs": [],
      "name": "creatorContractAddress",
      "outputs": [
        {
          "internalType": "address",
          "name": "",
          "type": "address"
        }
      ],
      "stateMutability": "view",
      "type": "function"
    },
    {
      "inputs": [],
      "name": "creatorFee",
      "outputs": [
        {
          "internalType": "uint256",
          "name": "",
          "type": "uint256"
        }
      ],
      "stateMutability": "view",
      "type": "function"
    },
    {
      "inputs": [
        {
          "internalType": "address",
          "name": "",
          "type": "address"
        },
        {
          "internalType": "uint256",
          "name": "",
          "type": "uint256"
        }
      ],
      "name": "creatorRoyalties",
      "outputs": [
        {
          "internalType": "uint256",
          "name": "",
          "type": "uint256"
        }
      ],
      "stateMutability": "view",
      "type": "function"
    },
    {
      "inputs": [
        {
          "internalType": "uint256",
          "name": "key",
          "type": "uint256"
        }
      ],
      "name": "getItem",
      "outputs": [
        {
          "components": [
            {
              "internalType": "address",
              "name": "contractAddress",
              "type": "address"
            },
            {
              "internalType": "uint256",
              "name": "tokenId",
              "type": "uint256"
            },
            {
              "internalType": "address",
              "name": "seller",
              "type": "address"
            },
            {
              "internalType": "uint256",
              "name": "price",
              "type": "uint256"
            },
            {
              "internalType": "bool",
              "name": "isListed",
              "type": "bool"
            },
            {
              "internalType": "uint256",
              "name": "royalty",
              "type": "uint256"
            },
            {
              "internalType": "address",
              "name": "royaltyAddress",
              "type": "address"
            }
          ],
          "internalType": "struct Marketplace.NFT",
          "name": "",
          "type": "tuple"
        }
      ],
      "stateMutability": "view",
      "type": "function"
    },
    {
      "inputs": [
        {
          "internalType": "bool",
          "name": "isListed",
          "type": "bool"
        }
      ],
      "name": "getItems",
      "outputs": [
        {
          "components": [
            {
              "internalType": "address",
              "name": "contractAddress",
              "type": "address"
            },
            {
              "internalType": "uint256",
              "name": "tokenId",
              "type": "uint256"
            },
            {
              "internalType": "address",
              "name": "seller",
              "type": "address"
            },
            {
              "internalType": "uint256",
              "name": "price",
              "type": "uint256"
            },
            {
              "internalType": "bool",
              "name": "isListed",
              "type": "bool"
            },
            {
              "internalType": "uint256",
              "name": "royalty",
              "type": "uint256"
            },
            {
              "internalType": "address",
              "name": "royaltyAddress",
              "type": "address"
            }
          ],
          "internalType": "struct Marketplace.NFT[]",
          "name": "",
          "type": "tuple[]"
        }
      ],
      "stateMutability": "view",
      "type": "function"
    },
    {
      "inputs": [
        {
          "internalType": "address",
          "name": "",
          "type": "address"
        },
        {
          "internalType": "uint256",
          "name": "",
          "type": "uint256"
        }
      ],
      "name": "indexOfItem",
      "outputs": [
        {
          "internalType": "uint256",
          "name": "",
          "type": "uint256"
        }
      ],
      "stateMutability": "view",
      "type": "function"
    },
    {
      "inputs": [
        {
          "internalType": "uint256",
          "name": "",
          "type": "uint256"
        }
      ],
      "name": "items",
      "outputs": [
        {
          "internalType": "address",
          "name": "contractAddress",
          "type": "address"
        },
        {
          "internalType": "uint256",
          "name": "tokenId",
          "type": "uint256"
        },
        {
          "internalType": "address",
          "name": "seller",
          "type": "address"
        },
        {
          "internalType": "uint256",
          "name": "price",
          "type": "uint256"
        },
        {
          "internalType": "bool",
          "name": "isListed",
          "type": "bool"
        },
        {
          "internalType": "uint256",
          "name": "royalty",
          "type": "uint256"
        },
        {
          "internalType": "address",
          "name": "royaltyAddress",
          "type": "address"
        }
      ],
      "stateMutability": "view",
      "type": "function"
    },
    {
      "inputs": [],
      "name": "lastItemIndex",
      "outputs": [
        {
          "internalType": "uint256",
          "name": "",
          "type": "uint256"
        }
      ],
      "stateMutability": "view",
      "type": "function"
    },
    {
      "inputs": [
        {
          "internalType": "address",
          "name": "_contractAddress",
          "type": "address"
        },
        {
          "internalType": "uint256",
          "name": "_tokenId",
          "type": "uint256"
        },
        {
          "internalType": "uint256",
          "name": "_price",
          "type": "uint256"
        }
      ],
      "name": "listItem",
      "outputs": [],
      "stateMutability": "nonpayable",
      "type": "function"
    },
    {
      "inputs": [],
      "name": "owner",
      "outputs": [
        {
          "internalType": "address",
          "name": "",
          "type": "address"
        }
      ],
      "stateMutability": "view",
      "type": "function"
    },
    {
      "inputs": [
        {
          "internalType": "address",
          "name": "_contractAddress",
          "type": "address"
        },
        {
          "internalType": "uint256",
          "name": "_tokenId",
          "type": "uint256"
        }
      ],
      "name": "sale",
      "outputs": [],
      "stateMutability": "payable",
      "type": "function"
    },
    {
      "inputs": [
        {
          "internalType": "address",
          "name": "_creator",
          "type": "address"
        }
      ],
      "name": "setCreator",
      "outputs": [],
      "stateMutability": "nonpayable",
      "type": "function"
    },
    {
      "inputs": [
        {
          "internalType": "uint256",
          "name": "_fee",
          "type": "uint256"
        }
      ],
      "name": "setCreatorFee",
      "outputs": [],
      "stateMutability": "nonpayable",
      "type": "function"
    },
    {
      "inputs": [
        {
          "internalType": "uint256",
          "name": "_fee",
          "type": "uint256"
        }
      ],
      "name": "setTransactionFee",
      "outputs": [],
      "stateMutability": "nonpayable",
      "type": "function"
    },
    {
      "inputs": [],
      "name": "transactionFee",
      "outputs": [
        {
          "internalType": "uint256",
          "name": "",
          "type": "uint256"
        }
      ],
      "stateMutability": "view",
      "type": "function"
    },
    {
      "inputs": [
        {
          "internalType": "address",
          "name": "_contractAddress",
          "type": "address"
        },
        {
          "internalType": "uint256",
          "name": "_tokenId",
          "type": "uint256"
        }
      ],
      "name": "unlistItem",
      "outputs": [],
      "stateMutability": "nonpayable",
      "type": "function"
    },
    {
      "inputs": [
        {
          "internalType": "address",
          "name": "_contractAddress",
          "type": "address"
        },
        {
          "internalType": "uint256",
          "name": "_tokenId",
          "type": "uint256"
        },
        {
          "internalType": "uint256",
          "name": "_price",
          "type": "uint256"
        }
      ],
      "name": "updatePrice",
      "outputs": [],
      "stateMutability": "nonpayable",
      "type": "function"
    }
  ],
  "bytecode": "0x608060405234801561001057600080fd5b50336000806101000a81548173ffffffffffffffffffffffffffffffffffffffff021916908373ffffffffffffffffffffffffffffffffffffffff16021790555061367a806100606000396000f3fe60806040526004361061011f5760003560e01c806389bfd38f116100a0578063c20027ae11610064578063c20027ae146103f5578063e57d6fb714610420578063e88958dc14610449578063efcd029f14610474578063f2801b1f1461049f5761011f565b806389bfd38f1461030a5780638da5cb5b1461033357806399bd17e41461035e5780639ed3edf014610387578063bfb231d2146103b25761011f565b806351325928116100e7578063513259281461020c578063611efc091461024957806364edeca1146102655780636cf27ca5146102905780637d652c65146102cd5761011f565b8063096a8ab7146101245780630dd16fd51461014d57806326829155146101765780633129e773146101a65780633f516018146101e3575b600080fd5b34801561013057600080fd5b5061014b60048036038101906101469190612614565b6104dc565b005b34801561015957600080fd5b50610174600480360381019061016f9190612614565b61053e565b005b610190600480360381019061018b91906126a6565b6105a0565b60405161019d9190612715565b60405180910390f35b3480156101b257600080fd5b506101cd60048036038101906101c89190612614565b61086b565b6040516101da9190612829565b60405180910390f35b3480156101ef57600080fd5b5061020a60048036038101906102059190612870565b6109d3565b005b34801561021857600080fd5b50610233600480360381019061022e91906128c9565b610a6f565b6040516102409190612a33565b60405180910390f35b610263600480360381019061025e9190612a55565b610e21565b005b34801561027157600080fd5b5061027a611606565b6040516102879190612715565b60405180910390f35b34801561029c57600080fd5b506102b760048036038101906102b29190612a55565b61160c565b6040516102c49190612715565b60405180910390f35b3480156102d957600080fd5b506102f460048036038101906102ef9190612a55565b611631565b6040516103019190612aa4565b60405180910390f35b34801561031657600080fd5b50610331600480360381019061032c9190612abf565b611673565b005b34801561033f57600080fd5b50610348611c87565b6040516103559190612aa4565b60405180910390f35b34801561036a57600080fd5b5061038560048036038101906103809190612a55565b611cab565b005b34801561039357600080fd5b5061039c611fd3565b6040516103a99190612715565b60405180910390f35b3480156103be57600080fd5b506103d960048036038101906103d49190612614565b611fd9565b6040516103ec9796959493929190612b21565b60405180910390f35b34801561040157600080fd5b5061040a612088565b6040516104179190612bcb565b60405180910390f35b34801561042c57600080fd5b5061044760048036038101906104429190612abf565b612093565b005b34801561045557600080fd5b5061045e6123eb565b60405161046b9190612715565b60405180910390f35b34801561048057600080fd5b506104896123f1565b6040516104969190612aa4565b60405180910390f35b3480156104ab57600080fd5b506104c660048036038101906104c19190612a55565b612417565b6040516104d39190612715565b60405180910390f35b60008054906101000a900473ffffffffffffffffffffffffffffffffffffffff1673ffffffffffffffffffffffffffffffffffffffff163373ffffffffffffffffffffffffffffffffffffffff161461053457600080fd5b8060028190555050565b60008054906101000a900473ffffffffffffffffffffffffffffffffffffffff1673ffffffffffffffffffffffffffffffffffffffff163373ffffffffffffffffffffffffffffffffffffffff161461059657600080fd5b8060088190555050565b60008073ffffffffffffffffffffffffffffffffffffffff16600760009054906101000a900473ffffffffffffffffffffffffffffffffffffffff1673ffffffffffffffffffffffffffffffffffffffff161415610633576040517f08c379a000000000000000000000000000000000000000000000000000000000815260040161062a90612c69565b60405180910390fd5b60006008541115610683573460085414610682576040517f08c379a000000000000000000000000000000000000000000000000000000000815260040161067990612cd5565b60405180910390fd5b5b6000600760009054906101000a900473ffffffffffffffffffffffffffffffffffffffff1673ffffffffffffffffffffffffffffffffffffffff1663a56140333387876040518463ffffffff1660e01b81526004016106e493929190612d42565b602060405180830381600087803b1580156106fe57600080fd5b505af1158015610712573d6000803e3d6000fd5b505050506040513d601f19601f820116820180604052508101906107369190612d89565b90508260056000600760009054906101000a900473ffffffffffffffffffffffffffffffffffffffff1673ffffffffffffffffffffffffffffffffffffffff1673ffffffffffffffffffffffffffffffffffffffff1681526020019081526020016000206000838152602001908152602001600020819055503360066000600760009054906101000a900473ffffffffffffffffffffffffffffffffffffffff1673ffffffffffffffffffffffffffffffffffffffff1673ffffffffffffffffffffffffffffffffffffffff168152602001908152602001600020600083815260200190815260200160002060006101000a81548173ffffffffffffffffffffffffffffffffffffffff021916908373ffffffffffffffffffffffffffffffffffffffff160217905550809150509392505050565b610873612553565b600360008381526020019081526020016000206040518060e00160405290816000820160009054906101000a900473ffffffffffffffffffffffffffffffffffffffff1673ffffffffffffffffffffffffffffffffffffffff1673ffffffffffffffffffffffffffffffffffffffff168152602001600182015481526020016002820160009054906101000a900473ffffffffffffffffffffffffffffffffffffffff1673ffffffffffffffffffffffffffffffffffffffff1673ffffffffffffffffffffffffffffffffffffffff168152602001600382015481526020016004820160009054906101000a900460ff16151515158152602001600582015481526020016006820160009054906101000a900473ffffffffffffffffffffffffffffffffffffffff1673ffffffffffffffffffffffffffffffffffffffff1673ffffffffffffffffffffffffffffffffffffffff16815250509050919050565b60008054906101000a900473ffffffffffffffffffffffffffffffffffffffff1673ffffffffffffffffffffffffffffffffffffffff163373ffffffffffffffffffffffffffffffffffffffff1614610a2b57600080fd5b80600760006101000a81548173ffffffffffffffffffffffffffffffffffffffff021916908373ffffffffffffffffffffffffffffffffffffffff16021790555050565b6060600060015467ffffffffffffffff811115610a8f57610a8e612db6565b5b604051908082528060200260200182016040528015610ac857816020015b610ab5612553565b815260200190600190039081610aad5790505b50905060005b600154811015610e1757838015610b0b57508315156003600083815260200190815260200160002060040160009054906101000a900460ff161515145b15610c8c57600360008281526020019081526020016000206040518060e00160405290816000820160009054906101000a900473ffffffffffffffffffffffffffffffffffffffff1673ffffffffffffffffffffffffffffffffffffffff1673ffffffffffffffffffffffffffffffffffffffff168152602001600182015481526020016002820160009054906101000a900473ffffffffffffffffffffffffffffffffffffffff1673ffffffffffffffffffffffffffffffffffffffff1673ffffffffffffffffffffffffffffffffffffffff168152602001600382015481526020016004820160009054906101000a900460ff16151515158152602001600582015481526020016006820160009054906101000a900473ffffffffffffffffffffffffffffffffffffffff1673ffffffffffffffffffffffffffffffffffffffff1673ffffffffffffffffffffffffffffffffffffffff1681525050828281518110610c7c57610c7b612de5565b5b6020026020010181905250610e04565b600360008281526020019081526020016000206040518060e00160405290816000820160009054906101000a900473ffffffffffffffffffffffffffffffffffffffff1673ffffffffffffffffffffffffffffffffffffffff1673ffffffffffffffffffffffffffffffffffffffff168152602001600182015481526020016002820160009054906101000a900473ffffffffffffffffffffffffffffffffffffffff1673ffffffffffffffffffffffffffffffffffffffff1673ffffffffffffffffffffffffffffffffffffffff168152602001600382015481526020016004820160009054906101000a900460ff16151515158152602001600582015481526020016006820160009054906101000a900473ffffffffffffffffffffffffffffffffffffffff1673ffffffffffffffffffffffffffffffffffffffff1673ffffffffffffffffffffffffffffffffffffffff1681525050828281518110610df857610df7612de5565b5b60200260200101819052505b8080610e0f90612e43565b915050610ace565b5080915050919050565b600073ffffffffffffffffffffffffffffffffffffffff168273ffffffffffffffffffffffffffffffffffffffff161415610e91576040517f08c379a0000000000000000000000000000000000000000000000000000000008152600401610e8890612ed8565b60405180910390fd5b610e9b828261243c565b610eda576040517f08c379a0000000000000000000000000000000000000000000000000000000008152600401610ed190612f44565b60405180910390fd5b60036000600460008573ffffffffffffffffffffffffffffffffffffffff1673ffffffffffffffffffffffffffffffffffffffff168152602001908152602001600020600084815260200190815260200160002054815260200190815260200160002060020160009054906101000a900473ffffffffffffffffffffffffffffffffffffffff1673ffffffffffffffffffffffffffffffffffffffff168273ffffffffffffffffffffffffffffffffffffffff16636352211e836040518263ffffffff1660e01b8152600401610fb09190612715565b60206040518083038186803b158015610fc857600080fd5b505afa158015610fdc573d6000803e3d6000fd5b505050506040513d601f19601f820116820180604052508101906110009190612f79565b73ffffffffffffffffffffffffffffffffffffffff1614611056576040517f08c379a000000000000000000000000000000000000000000000000000000000815260040161104d90612ff2565b60405180910390fd5b3073ffffffffffffffffffffffffffffffffffffffff168273ffffffffffffffffffffffffffffffffffffffff1663081812fc836040518263ffffffff1660e01b81526004016110a69190612715565b60206040518083038186803b1580156110be57600080fd5b505afa1580156110d2573d6000803e3d6000fd5b505050506040513d601f19601f820116820180604052508101906110f69190612f79565b73ffffffffffffffffffffffffffffffffffffffff161461114c576040517f08c379a00000000000000000000000000000000000000000000000000000000081526004016111439061305e565b60405180910390fd5b60036000600460008573ffffffffffffffffffffffffffffffffffffffff1673ffffffffffffffffffffffffffffffffffffffff16815260200190815260200160002060008481526020019081526020016000205481526020019081526020016000206003015434146111f4576040517f08c379a00000000000000000000000000000000000000000000000000000000081526004016111eb906130ca565b60405180910390fd5b600060036000600460008673ffffffffffffffffffffffffffffffffffffffff1673ffffffffffffffffffffffffffffffffffffffff1681526020019081526020016000206000858152602001908152602001600020548152602001908152602001600020905060008160020160009054906101000a900473ffffffffffffffffffffffffffffffffffffffff1690506000633b9aca00600254846003015461129d91906130ea565b6112a79190613173565b9050826003015481106112ef576040517f08c379a00000000000000000000000000000000000000000000000000000000081526004016112e6906131f0565b60405180910390fd5b60008060036000600460008a73ffffffffffffffffffffffffffffffffffffffff1673ffffffffffffffffffffffffffffffffffffffff168152602001908152602001600020600089815260200190815260200160002054815260200190815260200160002060050154111561148757633b9aca008460050154856003015461137891906130ea565b6113829190613173565b9050836003015481106113ca576040517f08c379a00000000000000000000000000000000000000000000000000000000081526004016113c19061325c565b60405180910390fd5b836003015482826113db919061327c565b1061141b576040517f08c379a000000000000000000000000000000000000000000000000000000000815260040161141290613344565b60405180910390fd5b8360060160009054906101000a900473ffffffffffffffffffffffffffffffffffffffff1673ffffffffffffffffffffffffffffffffffffffff166108fc829081150290604051600060405180830381858888f19350505050158015611485573d6000803e3d6000fd5b505b60008282866003015461149a9190613364565b6114a49190613364565b90508373ffffffffffffffffffffffffffffffffffffffff166108fc829081150290604051600060405180830381858888f193505050501580156114ec573d6000803e3d6000fd5b508673ffffffffffffffffffffffffffffffffffffffff166342842e0e8533896040518463ffffffff1660e01b815260040161152a93929190613398565b600060405180830381600087803b15801561154457600080fd5b505af1158015611558573d6000803e3d6000fd5b50505050338560020160006101000a81548173ffffffffffffffffffffffffffffffffffffffff021916908373ffffffffffffffffffffffffffffffffffffffff16021790555060008560040160006101000a81548160ff0219169083151502179055508460030154867f5d1aeb452e82b72f02aa69e185ce8979e5f4b1ae703514bffede02f7d1bf7da086338b6040516115f5939291906133cf565b60405180910390a350505050505050565b60015481565b6004602052816000526040600020602052806000526040600020600091509150505481565b60066020528160005260406000206020528060005260406000206000915091509054906101000a900473ffffffffffffffffffffffffffffffffffffffff1681565b600073ffffffffffffffffffffffffffffffffffffffff168373ffffffffffffffffffffffffffffffffffffffff1614156116e3576040517f08c379a00000000000000000000000000000000000000000000000000000000081526004016116da90612ed8565b60405180910390fd5b6116ec836124ba565b61172b576040517f08c379a000000000000000000000000000000000000000000000000000000000815260040161172290613478565b60405180910390fd5b3373ffffffffffffffffffffffffffffffffffffffff168373ffffffffffffffffffffffffffffffffffffffff16636352211e846040518263ffffffff1660e01b815260040161177b9190612715565b60206040518083038186803b15801561179357600080fd5b505afa1580156117a7573d6000803e3d6000fd5b505050506040513d601f19601f820116820180604052508101906117cb9190612f79565b73ffffffffffffffffffffffffffffffffffffffff1614611821576040517f08c379a00000000000000000000000000000000000000000000000000000000081526004016118189061350a565b60405180910390fd5b3073ffffffffffffffffffffffffffffffffffffffff168373ffffffffffffffffffffffffffffffffffffffff1663081812fc846040518263ffffffff1660e01b81526004016118719190612715565b60206040518083038186803b15801561188957600080fd5b505afa15801561189d573d6000803e3d6000fd5b505050506040513d601f19601f820116820180604052508101906118c19190612f79565b73ffffffffffffffffffffffffffffffffffffffff1614611917576040517f08c379a000000000000000000000000000000000000000000000000000000000815260040161190e9061305e565b60405180910390fd5b611921838361243c565b15611961576040517f08c379a000000000000000000000000000000000000000000000000000000000815260040161195890613576565b60405180910390fd5b600081116119a4576040517f08c379a000000000000000000000000000000000000000000000000000000000815260040161199b906135e2565b60405180910390fd5b600160008154809291906119b790612e43565b91905055506000600560008573ffffffffffffffffffffffffffffffffffffffff1673ffffffffffffffffffffffffffffffffffffffff16815260200190815260200160002060008481526020019081526020016000205490506000600660008673ffffffffffffffffffffffffffffffffffffffff1673ffffffffffffffffffffffffffffffffffffffff168152602001908152602001600020600085815260200190815260200160002060009054906101000a900473ffffffffffffffffffffffffffffffffffffffff1690506040518060e001604052808673ffffffffffffffffffffffffffffffffffffffff1681526020018581526020013373ffffffffffffffffffffffffffffffffffffffff1681526020018481526020016001151581526020018381526020018273ffffffffffffffffffffffffffffffffffffffff1681525060036000600154815260200190815260200160002060008201518160000160006101000a81548173ffffffffffffffffffffffffffffffffffffffff021916908373ffffffffffffffffffffffffffffffffffffffff1602179055506020820151816001015560408201518160020160006101000a81548173ffffffffffffffffffffffffffffffffffffffff021916908373ffffffffffffffffffffffffffffffffffffffff1602179055506060820151816003015560808201518160040160006101000a81548160ff02191690831515021790555060a0820151816005015560c08201518160060160006101000a81548173ffffffffffffffffffffffffffffffffffffffff021916908373ffffffffffffffffffffffffffffffffffffffff160217905550905050600154600460008773ffffffffffffffffffffffffffffffffffffffff1673ffffffffffffffffffffffffffffffffffffffff1681526020019081526020016000206000868152602001908152602001600020819055505050505050565b60008054906101000a900473ffffffffffffffffffffffffffffffffffffffff1681565b600073ffffffffffffffffffffffffffffffffffffffff168273ffffffffffffffffffffffffffffffffffffffff161415611d1b576040517f08c379a0000000000000000000000000000000000000000000000000000000008152600401611d1290612ed8565b60405180910390fd5b611d25828261243c565b611d64576040517f08c379a0000000000000000000000000000000000000000000000000000000008152600401611d5b90612f44565b60405180910390fd5b3373ffffffffffffffffffffffffffffffffffffffff168273ffffffffffffffffffffffffffffffffffffffff16636352211e836040518263ffffffff1660e01b8152600401611db49190612715565b60206040518083038186803b158015611dcc57600080fd5b505afa158015611de0573d6000803e3d6000fd5b505050506040513d601f19601f82011682018060405250810190611e049190612f79565b73ffffffffffffffffffffffffffffffffffffffff1614611e5a576040517f08c379a0000000000000000000000000000000000000000000000000000000008152600401611e519061350a565b60405180910390fd5b3073ffffffffffffffffffffffffffffffffffffffff168273ffffffffffffffffffffffffffffffffffffffff1663081812fc836040518263ffffffff1660e01b8152600401611eaa9190612715565b60206040518083038186803b158015611ec257600080fd5b505afa158015611ed6573d6000803e3d6000fd5b505050506040513d601f19601f82011682018060405250810190611efa9190612f79565b73ffffffffffffffffffffffffffffffffffffffff1614611f50576040517f08c379a0000000000000000000000000000000000000000000000000000000008152600401611f479061305e565b60405180910390fd5b600060036000600460008673ffffffffffffffffffffffffffffffffffffffff1673ffffffffffffffffffffffffffffffffffffffff168152602001908152602001600020600085815260200190815260200160002054815260200190815260200160002060040160006101000a81548160ff0219169083151502179055505050565b60025481565b60036020528060005260406000206000915090508060000160009054906101000a900473ffffffffffffffffffffffffffffffffffffffff16908060010154908060020160009054906101000a900473ffffffffffffffffffffffffffffffffffffffff16908060030154908060040160009054906101000a900460ff16908060050154908060060160009054906101000a900473ffffffffffffffffffffffffffffffffffffffff16905087565b6380ac58cd60e01b81565b600073ffffffffffffffffffffffffffffffffffffffff168373ffffffffffffffffffffffffffffffffffffffff161415612103576040517f08c379a00000000000000000000000000000000000000000000000000000000081526004016120fa90612ed8565b60405180910390fd5b61210d838361243c565b61214c576040517f08c379a000000000000000000000000000000000000000000000000000000000815260040161214390612f44565b60405180910390fd5b3373ffffffffffffffffffffffffffffffffffffffff168373ffffffffffffffffffffffffffffffffffffffff16636352211e846040518263ffffffff1660e01b815260040161219c9190612715565b60206040518083038186803b1580156121b457600080fd5b505afa1580156121c8573d6000803e3d6000fd5b505050506040513d601f19601f820116820180604052508101906121ec9190612f79565b73ffffffffffffffffffffffffffffffffffffffff1614612242576040517f08c379a00000000000000000000000000000000000000000000000000000000081526004016122399061350a565b60405180910390fd5b3073ffffffffffffffffffffffffffffffffffffffff168373ffffffffffffffffffffffffffffffffffffffff1663081812fc846040518263ffffffff1660e01b81526004016122929190612715565b60206040518083038186803b1580156122aa57600080fd5b505afa1580156122be573d6000803e3d6000fd5b505050506040513d601f19601f820116820180604052508101906122e29190612f79565b73ffffffffffffffffffffffffffffffffffffffff1614612338576040517f08c379a000000000000000000000000000000000000000000000000000000000815260040161232f9061305e565b60405180910390fd5b6000811161237b576040517f08c379a0000000000000000000000000000000000000000000000000000000008152600401612372906135e2565b60405180910390fd5b8060036000600460008773ffffffffffffffffffffffffffffffffffffffff1673ffffffffffffffffffffffffffffffffffffffff168152602001908152602001600020600086815260200190815260200160002054815260200190815260200160002060030181905550505050565b60085481565b600760009054906101000a900473ffffffffffffffffffffffffffffffffffffffff1681565b6005602052816000526040600020602052806000526040600020600091509150505481565b600060036000600460008673ffffffffffffffffffffffffffffffffffffffff1673ffffffffffffffffffffffffffffffffffffffff168152602001908152602001600020600085815260200190815260200160002054815260200190815260200160002060040160009054906101000a900460ff16905092915050565b60008173ffffffffffffffffffffffffffffffffffffffff166301ffc9a76380ac58cd60e01b6040518263ffffffff1660e01b81526004016124fc9190612bcb565b60206040518083038186803b15801561251457600080fd5b505afa158015612528573d6000803e3d6000fd5b505050506040513d601f19601f8201168201806040525081019061254c9190613617565b9050919050565b6040518060e00160405280600073ffffffffffffffffffffffffffffffffffffffff16815260200160008152602001600073ffffffffffffffffffffffffffffffffffffffff1681526020016000815260200160001515815260200160008152602001600073ffffffffffffffffffffffffffffffffffffffff1681525090565b600080fd5b600080fd5b6000819050919050565b6125f1816125de565b81146125fc57600080fd5b50565b60008135905061260e816125e8565b92915050565b60006020828403121561262a576126296125d4565b5b6000612638848285016125ff565b91505092915050565b600080fd5b600080fd5b600080fd5b60008083601f84011261266657612665612641565b5b8235905067ffffffffffffffff81111561268357612682612646565b5b60208301915083600182028301111561269f5761269e61264b565b5b9250929050565b6000806000604084860312156126bf576126be6125d4565b5b600084013567ffffffffffffffff8111156126dd576126dc6125d9565b5b6126e986828701612650565b935093505060206126fc868287016125ff565b9150509250925092565b61270f816125de565b82525050565b600060208201905061272a6000830184612706565b92915050565b600073ffffffffffffffffffffffffffffffffffffffff82169050919050565b600061275b82612730565b9050919050565b61276b81612750565b82525050565b61277a816125de565b82525050565b60008115159050919050565b61279581612780565b82525050565b60e0820160008201516127b16000850182612762565b5060208201516127c46020850182612771565b5060408201516127d76040850182612762565b5060608201516127ea6060850182612771565b5060808201516127fd608085018261278c565b5060a082015161281060a0850182612771565b5060c082015161282360c0850182612762565b50505050565b600060e08201905061283e600083018461279b565b92915050565b61284d81612750565b811461285857600080fd5b50565b60008135905061286a81612844565b92915050565b600060208284031215612886576128856125d4565b5b60006128948482850161285b565b91505092915050565b6128a681612780565b81146128b157600080fd5b50565b6000813590506128c38161289d565b92915050565b6000602082840312156128df576128de6125d4565b5b60006128ed848285016128b4565b91505092915050565b600081519050919050565b600082825260208201905092915050565b6000819050602082019050919050565b60e0820160008201516129386000850182612762565b50602082015161294b6020850182612771565b50604082015161295e6040850182612762565b5060608201516129716060850182612771565b506080820151612984608085018261278c565b5060a082015161299760a0850182612771565b5060c08201516129aa60c0850182612762565b50505050565b60006129bc8383612922565b60e08301905092915050565b6000602082019050919050565b60006129e0826128f6565b6129ea8185612901565b93506129f583612912565b8060005b83811015612a26578151612a0d88826129b0565b9750612a18836129c8565b9250506001810190506129f9565b5085935050505092915050565b60006020820190508181036000830152612a4d81846129d5565b905092915050565b60008060408385031215612a6c57612a6b6125d4565b5b6000612a7a8582860161285b565b9250506020612a8b858286016125ff565b9150509250929050565b612a9e81612750565b82525050565b6000602082019050612ab96000830184612a95565b92915050565b600080600060608486031215612ad857612ad76125d4565b5b6000612ae68682870161285b565b9350506020612af7868287016125ff565b9250506040612b08868287016125ff565b9150509250925092565b612b1b81612780565b82525050565b600060e082019050612b36600083018a612a95565b612b436020830189612706565b612b506040830188612a95565b612b5d6060830187612706565b612b6a6080830186612b12565b612b7760a0830185612706565b612b8460c0830184612a95565b98975050505050505050565b60007fffffffff0000000000000000000000000000000000000000000000000000000082169050919050565b612bc581612b90565b82525050565b6000602082019050612be06000830184612bbc565b92915050565b600082825260208201905092915050565b7f63726561746f7220636f6e74726163742061646472657373206e6f742073657460008201527f7570000000000000000000000000000000000000000000000000000000000000602082015250565b6000612c53602283612be6565b9150612c5e82612bf7565b604082019050919050565b60006020820190508181036000830152612c8281612c46565b9050919050565b7f63726561746f7220666565206e6f7420636f7272656374000000000000000000600082015250565b6000612cbf601783612be6565b9150612cca82612c89565b602082019050919050565b60006020820190508181036000830152612cee81612cb2565b9050919050565b82818337600083830152505050565b6000601f19601f8301169050919050565b6000612d218385612be6565b9350612d2e838584612cf5565b612d3783612d04565b840190509392505050565b6000604082019050612d576000830186612a95565b8181036020830152612d6a818486612d15565b9050949350505050565b600081519050612d83816125e8565b92915050565b600060208284031215612d9f57612d9e6125d4565b5b6000612dad84828501612d74565b91505092915050565b7f4e487b7100000000000000000000000000000000000000000000000000000000600052604160045260246000fd5b7f4e487b7100000000000000000000000000000000000000000000000000000000600052603260045260246000fd5b7f4e487b7100000000000000000000000000000000000000000000000000000000600052601160045260246000fd5b6000612e4e826125de565b91507fffffffffffffffffffffffffffffffffffffffffffffffffffffffffffffffff821415612e8157612e80612e14565b5b600182019050919050565b7f696e76616c696420636f6e747261637420616464726573730000000000000000600082015250565b6000612ec2601883612be6565b9150612ecd82612e8c565b602082019050919050565b60006020820190508181036000830152612ef181612eb5565b9050919050565b7f746f6b656e206973206e6f74206c697374656400000000000000000000000000600082015250565b6000612f2e601383612be6565b9150612f3982612ef8565b602082019050919050565b60006020820190508181036000830152612f5d81612f21565b9050919050565b600081519050612f7381612844565b92915050565b600060208284031215612f8f57612f8e6125d4565b5b6000612f9d84828501612f64565b91505092915050565b7f746f6b656e206f776e6572206973206e6f74207468652073656c6c6572000000600082015250565b6000612fdc601d83612be6565b9150612fe782612fa6565b602082019050919050565b6000602082019050818103600083015261300b81612fcf565b9050919050565b7f746f6b656e206973206e6f7420617070726f76656420666f722073616c650000600082015250565b6000613048601e83612be6565b915061305382613012565b602082019050919050565b600060208201905081810360008301526130778161303b565b9050919050565b7f696e76616c6964207061796d656e740000000000000000000000000000000000600082015250565b60006130b4600f83612be6565b91506130bf8261307e565b602082019050919050565b600060208201905081810360008301526130e3816130a7565b9050919050565b60006130f5826125de565b9150613100836125de565b9250817fffffffffffffffffffffffffffffffffffffffffffffffffffffffffffffffff048311821515161561313957613138612e14565b5b828202905092915050565b7f4e487b7100000000000000000000000000000000000000000000000000000000600052601260045260246000fd5b600061317e826125de565b9150613189836125de565b92508261319957613198613144565b5b828204905092915050565b7f696e636f7272656374207472616e73616374696f6e2066656500000000000000600082015250565b60006131da601983612be6565b91506131e5826131a4565b602082019050919050565b60006020820190508181036000830152613209816131cd565b9050919050565b7f696e636f72726563742073657474696e6720666f7220726f79616c7479000000600082015250565b6000613246601d83612be6565b915061325182613210565b602082019050919050565b6000602082019050818103600083015261327581613239565b9050919050565b6000613287826125de565b9150613292836125de565b9250827fffffffffffffffffffffffffffffffffffffffffffffffffffffffffffffffff038211156132c7576132c6612e14565b5b828201905092915050565b7f726f79616c747920616e64207472616e73616374696f6e2066656520746f6f2060008201527f6869676800000000000000000000000000000000000000000000000000000000602082015250565b600061332e602483612be6565b9150613339826132d2565b604082019050919050565b6000602082019050818103600083015261335d81613321565b9050919050565b600061336f826125de565b915061337a836125de565b92508282101561338d5761338c612e14565b5b828203905092915050565b60006060820190506133ad6000830186612a95565b6133ba6020830185612a95565b6133c76040830184612706565b949350505050565b60006060820190506133e46000830186612a95565b6133f16020830185612a95565b6133fe6040830184612a95565b949350505050565b7f636f6e74726163742061646472657373206973206e6f7420455243373231206360008201527f6f6d70617469626c650000000000000000000000000000000000000000000000602082015250565b6000613462602983612be6565b915061346d82613406565b604082019050919050565b6000602082019050818103600083015261349181613455565b9050919050565b7f796f7520617265206e6f7420746865206f776e6572206f66207468697320746f60008201527f6b656e0000000000000000000000000000000000000000000000000000000000602082015250565b60006134f4602383612be6565b91506134ff82613498565b604082019050919050565b60006020820190508181036000830152613523816134e7565b9050919050565b7f746f6b656e20697320616c7265616479206c6973746564000000000000000000600082015250565b6000613560601783612be6565b915061356b8261352a565b602082019050919050565b6000602082019050818103600083015261358f81613553565b9050919050565b7f70726963652063616e6e6f742062652030000000000000000000000000000000600082015250565b60006135cc601183612be6565b91506135d782613596565b602082019050919050565b600060208201905081810360008301526135fb816135bf565b9050919050565b6000815190506136118161289d565b92915050565b60006020828403121561362d5761362c6125d4565b5b600061363b84828501613602565b9150509291505056fea2646970667358221220672ac2ed8e8dcff45ee33250c34374d007613a919bcbfa8af903a5c4e78ed96764736f6c63430008090033",
  "linkReferences": {},
  "deployedLinkReferences": {}
}